:100000000C9434000C9451000C9451000C94510049
:100010000C9451000C9451000C9451000C9451001C
:100020000C9451000C9451000C9451000C9451000C
:100030000C9451000C9451000C94D3040C94510076
:100040000C9451000C9451000C9451000C945100EC
:100050000C9451000C9451000C9451000C945100DC
:100060000C9451000C94510011241FBECFEFD8E026
:10007000DEBFCDBF12E0A0E0B1E0E8E6FBE002C0E9
:1000800005900D92A236B107D9F723E0A2E6B2E0BF
:1000900001C01D92A434B207E1F70E94F8040C9449
:1000A000B2050C940000F8946091400370914103F4
:1000B00080914203909143037894089582E084BD37
:1000C00093E095BD99EF97BD80936E0008952091C0
:1000D0002A0130912B0140912C0150912D016DE6A8
:1000E0007EE486EC91E40E942F05675C7F4C8F4F85
:1000F0009F4F60932A0170932B0180932C01909362
:100100002D010895CF92DF92EF92FF926B017C0157
:10011000C114D104E104F10439F4C701B601FF9020
:10012000EF90DF90CF9008950E946700A70196019D
:100130000E9453056B017C01F0CF611571058105AB
:10014000910521F461E070E080E090E060932A0185
:1001500070932B0180932C0190932D0108958F9221
:100160009F92AF92BF92CF92DF92EF92FF9220E0E8
:10017000C12CD12C760101C02F5F2530E8F4822FED
:1001800090E0409128015091290184179507A1F32F
:10019000880F991F880F991F880F991FFC01E05045
:1001A000FF4F82819381092E000CAA0BBB0BC80E56
:1001B000D91EEA1EFB1EE0CFC701B6010E948200D5
:1001C0004B015C0190E0C12CD12C760101C09F5FF6
:1001D000953038F5292F30E04091280150912901C0
:1001E00024173507A1F3F901EE0FFF1FEE0FFF1FD4
:1001F000EE0FFF1FE050FF4F42815381052E000C90
:10020000660B770BC40ED51EE61EF71E8C149D04DC
:10021000AE04BF04E0F63093290120932801CF01FA
:1002200002C080E091E0FF90EF90DF90CF90BF9010
:10023000AF909F908F90089569E370E380E090E025
:100240000E949D0008950E94530020E63AEE40E08F
:1002500050E00E94530581E020FD80E00895CF9397
:10026000DF93EC018F81882339F00E9423018823DA
:10027000B1F086E491E010C06E8170E090E080E023
:100280000E9482004C815D819B01220F331F260F4B
:10029000371FCA01820F931FDF91CF91089589E420
:1002A00091E0FACF85B1886085B985E08A95F1F74C
:1002B000000085B1877F85B98FE891E00197F1F75C
:1002C00000C0000008959BB19F709BB980FF03C0E0
:1002D0009BB190619BB981FF03C09BB190629BB9B8
:1002E00082FF03C09BB190649BB983FF03C08BB1B5
:1002F00080688BB90E9452010895CF93C82F611175
:1003000015C085B18F7E85B98C2F90E09595879526
:100310009595879595958795959587950E94630105
:100320008C2F8F700E946301CF91089585B18061F9
:1003300085B9EACF61E00E947D0187EC90E00197EA
:10034000F1F700C0000008950E949A010895CF932C
:10035000DF93EC018881882321F00E94A40121967B
:10036000F9CFDF91CF91089560E00E947D0187EC85
:1003700090E00197F1F700C000000895E62FF0E04B
:10038000E45BFE4F9081890F80680E94B40108955C
:100390000F931F93CF938B01682F80E00E94BE01C3
:1003A000C0E00115110561F0F801EC0FF11D80812D
:1003B000882331F0C03120F40E94A401CF5FF1CF37
:1003C000C03128F480E20E94A401CF5FF9CFCF9121
:1003D0001F910F910895CF93682F80E00E94BE0176
:1003E000C0E0C03128F480E20E94A401CF5FF9CFC1
:1003F000CF91089581E00E94B4018FE39FE10197BE
:10040000F1F700C00000089584B1886184B98AB111
:10041000806F8AB92FEF80E792E0215080409040B2
:10042000E1F700C0000085B1877E85B983E00E94B6
:1004300063018FE19EE40197F1F700C0000083E0C3
:100440000E94630187E592E00197F1F700C0000088
:1004500083E00E94630187E592E00197F1F700C015
:10046000000082E00E94630187E592E00197F1F7C6
:1004700000C0000088E20E94B4018CE00E94B40138
:1004800086E00E94B4010E94FA010895AF92BF92E3
:10049000CF92DF92EF92FF920F931F93CF935B0166
:1004A0006A01FB0101900020E9F731978F01061BDB
:1004B000170B78010A5F1F4F682F80E00E94BE0172
:1004C000C0E004C080E20E94A401CF5FC03170F49C
:1004D000C6018C0F911DB8010E943F058E159F0526
:1004E0008CF78A0D9B1DFC018081EDCFCF911F9170
:1004F0000F91FF90EF90DF90CF90BF90AF90089555
:100500004F925F926F927F928F929F92AF92BF9223
:10051000CF92DF92EF92FF921F93CF93DF93EC0184
:10052000162F0E9453006B017C01FE01E05AFF4F21
:100530008081882309F49DC0823009F470C0FE01D7
:1005400001900020E9F73197EC1BFD0BE131F1053B
:100550000CF48BC0DE01A859BF4F8C91882369F140
:10056000813009F496C00F2EF0EB8F2EF4E09F2E11
:10057000A12CB12CF02DDE01A759BF4F4D915D91FB
:100580006D917C9126013701441A550A660A770A53
:10059000B301A201481559056A057B0508F469C035
:1005A000823009F47FC0DE01A859BF4F1C92179713
:1005B000CD92DD92ED92FC921397DE01AF59BF4FC1
:1005C0008D919D910D90BC91A02DA7019601281BA6
:1005D000390B4A0B5B0BDA01C901823C9140A10542
:1005E000B10508F446C0DE01AF59BF4FCD92DD9290
:1005F000ED92FC9213973A9715964D915C914E1798
:100600005F070CF06BC04F5F5F4FFE01EA59FF4F71
:1006100051834083BE01812F0E9446022AC0319639
:1006200080819181A281B38126013701481A590A3C
:100630006A0A7B0AD301C201823C9140A105B1053F
:10064000C0F0C082D182E282F3823496808191E050
:1006500089278083882329F0BE01812F0E94C80149
:1006600008C0812F0E94EB0104C0BE01812F0E94AF
:10067000C801DF91CF911F91FF90EF90DF90CF9055
:10068000BF90AF909F908F907F906F905F904F90B2
:1006900008950F2EF8EE8F2EF3E09F2EA12CB12C93
:1006A000F02D69CFFE01EA59FF4F1182108250E010
:1006B00040E0BE01812F0E944602FE01E859FF4F33
:1006C00081E080833196C082D182E282F382CF5969
:1006D000DF4FC882D982EA82FB82CBCFAF01BE0155
:1006E000812F0E944602FE01E859FF4F82E080837D
:1006F000C759DF4FC882D982EA82FB82BACF60E055
:100700008FEC92E00E94800261E082E692E00E941B
:10071000800208950F931F93CF93DF93EC01DA01CA
:10072000892B81F090E0903180F4292F30E0FB019B
:10073000E20FF31F50E250832A0F3B1FF901508351
:100740009F5FF1CFCEE0D2E0EDCFFB01108A509653
:100750001C925097FE0101900020E9F7CF0101970C
:100760008C1B9D0B30E020E02031310584F42817EC
:10077000390784F48B01020F131FAE01420F531F80
:10078000FA014081F80140832F5F3F4FEDCF30E009
:1007900020E002C030E020E0203131059CF4A901C6
:1007A000405F5F4F481759076CF4BD01620F731F1C
:1007B000AE01420F531FFA014089FB0140832F5FB6
:1007C0003F4FEACFDF91CF911F910F910895EF92A4
:1007D000FF920F931F93CF93DF93EC01E62EBA01A4
:1007E000F22E452B09F443C04FE550E0CE010E94A4
:1007F000A305FE01E15AFF4F10823196F0820E945C
:100800005300FE01EF59FF4F60837183828393830E
:1008100081E0349680833196118210823296108264
:1008200031961082118212821382FF2019F182E028
:10083000F81601F1FE0101900020E9F73197EC1B59
:10084000FD0B719714F150E040E0BE018E2D0E9427
:100850004602FE01E859FF4F81E080830E94530069
:10086000C759DF4F688379838A839B8307C06EE013
:1008700072E0BACFBE018E2D0E94C801DF91CF91E8
:100880001F910F91FF90EF900895BE018E2D0E9451
:10089000C801F4CF1F93CF93DF93CDB7DEB7A297F4
:1008A0000FB6F894DEBF0FBECDBF162F009731F103
:1008B000FC0101900020E9F73197E81BF90B7197D3
:1008C000ECF06130A1F1AE014E5E5F4FBE016F5F93
:1008D0007F4F0E948A03212FAE014F5F5F4F60E080
:1008E0008FEC92E00E94E703212FAE014E5E5F4F36
:1008F00061E082E692E00E94E7030FC0212FAC0185
:1009000060E08FEC92E00E94E70320E04EE052E0CE
:1009100061E082E692E00E94E703A2960FB6F894A7
:10092000DEBF0FBECDBFDF91CF911F910895262F5F
:10093000AC0160E08FEC92E00E94E70320E04EE023
:1009400052E061E082E692E00E94E703E6CFCF93B7
:10095000DF930E94AF000E942F01EC010E94FA0178
:100960006A81888199810E944A040E9453006093A1
:100970003C0370933D0380933E0390933F03DF91CC
:10098000CF91089520E04EE052E060E08FEC92E0DD
:100990000E94E70320E04EE052E061E082E692E050
:1009A0000E94E70308951F920F920FB60F92112431
:1009B0008F939F93AF93BF93809140039091410396
:1009C000A0914203B09143030196A11DB11D8093F4
:1009D000400390934103A0934203B0934303BF911C
:1009E000AF919F918F910F900FBE0F901F90189510
:1009F0000E9404020E945E0078940E941C010E94E2
:100A0000C2040E94FA0160E080E00E94BE018EE410
:100A100091E00E94A7012FEF83ED90E321508040E9
:100A20009040E1F700C000000E94A70402C00E94AD
:100A30007F030E94530000913C0310913D032091DD
:100A40003E0330913F03601B710B820B930B6032AE
:100A50007E448105910558F30E94A704E8CFDB018D
:100A60008F939F930E947505BF91AF91A29F800DB8
:100A7000911DA39F900DB29F900D1124089597FB97
:100A8000072E16F4009407D077FD09D00E94800548
:100A900007FC05D03EF4909581959F4F0895709581
:100AA00061957F4F0895A1E21A2EAA1BBB1BFD0181
:100AB0000DC0AA1FBB1FEE1FFF1FA217B307E4073D
:100AC000F50720F0A21BB30BE40BF50B661F771F95
:100AD000881F991F1A9469F7609570958095909575
:100AE0009B01AC01BD01CF0108950E949405A59F13
:100AF000900DB49F900DA49F800D911D1124089519
:100B0000AA1BBB1B51E107C0AA1FBB1FA617B70733
:100B100010F0A61BB70B881F991F5A95A9F780954F
:100B20009095BC01CD010895A29FB001B39FC00173
:100B3000A39F700D811D1124911DB29F700D811D09
:100B40001124911D0895FB01DC014150504048F0F3
:100B500001900D920020C9F701C01D9241505040F4
:080B6000E0F70895F894FFCFBF
:100B6800EC0188133D0103002602B80B370102008F
:100B78005B02DC05000000018701A00F31010200C3
:100B88002D02E8032E010100FFFF010000005B01B8
:100B9800007701008F0100A40101BC0100E0010100
:100BA800F201000F020231020149020000405245E1
:100BB8004B4C414D5441564C414E0053796E617334
:100BC800206861723F20494F543A732052656B6C1C
:100BD800616D62797261004D7973746572696572CD
:100BE8003F2052696E67204C616E6762656E004CEB
:100BF800616E6762656E20666978617220626966F7
:100C080066656E004B6F702070616A20686F732094
:100C18004661726D6F7220416E6B6100536B796E25
:100C2800646120696E6E616E204D617274656E201C
:100C38006174697420616C6C612070616A6572000E
:100C48004B6F702062696C20686F73204861727204
:100C58007900456E20676F642062696C6166666121
:100C6800722028666F7220486172727921290048C3
:100C7800656465726C696765204861727279732072
:100C880042696C6172004661726D6F7200494F541F
:100C9800004C6174205065747465722062796767CE
:100CA8006120617420646967004279676761207315
:100CB800766172743F2052696E672050657474655E
:020CC8007200B8
:00000001FF
